:020000040800F2
:100000002007002091020008791A0008C515000891
:10001000751A000889040008291C00080000000067
:10002000000000000000000000000000811A00082D
:100030008D040008000000007D1A0008851A0008E1
:10004000AB020008AB020008AB020008AB020008DC
:10005000AB020008AB020008AB020008AB020008CC
:10006000AB020008AB020008AB020008AB020008BC
:10007000AB020008AB020008AB020008AB020008AC
:10008000AB020008AB020008AB020008AB0200089C
:10009000AB020008AB020008AB020008AB0200088C
:1000A000AB020008AB020008AB020008AB0200087C
:1000B000AB020008AB020008AB020008AB0200086C
:1000C000AB020008AB020008AB020008AB0200085C
:1000D000AB020008AB020008AB020008AB0200084C
:1000E000AB020008AB020008AB020008AB0200083C
:1000F000AB020008AB020008AB020008AB0200082C
:10010000AB020008AB020008AB020008AB0200081B
:10011000AB020008AB020008AB020008AB0200080B
:10012000AB020008AB020008AB020008AB020008FB
:10013000AB0200080000000000000000AB02000855
:10014000AB020008AB020008AB020008AB020008DB
:10015000AB020008AB020008AB020008AB020008CB
:10016000AB020008AB020008AB020008AB020008BB
:10017000AB020008AB020008AB0200080000000060
:1001800000000000AB0200080000000000000000BA
:10019000AB0200080000000000000000AB020008F5
:1001A000000000000000000000000000AB0200089A
:1001B000AB020008AB020008AB020008AB0200086B
:1001C000AB02000800F002F800F052F814A696E81E
:1001D000000CB244B344DA4501D100F049F8BAE862
:1001E0000F000FA696E83000A5EB040504EB060708
:1001F000AAEB0704A7F101074FEA15154FEA3414DB
:10020000A4F10104AC4201D300F032F813F0010F65
:1002100018BFFB1A43F0010300F001F8DBE71847B1
:100220000021000020210000103A24BF78C878C1C6
:10023000FAD8520724BF30C830C144BF04680C60EC
:1002400070470000704700000023002400250026AE
:10025000103A28BF78C1FBD8520728BF30C148BF29
:100260000B6070471FB502F042F81FBD10B510BDFE
:1002700000F0D0F81146FFF7F5FF01F0A1FD00F006
:10028000EEF803B4FFF7F2FF03BC00F0F5F800004E
:100290000948804709480047FEE7FEE7FEE7FEE71A
:1002A000FEE7FEE7FEE7FEE7FEE7FEE70448054956
:1002B000054A064B704700002D1B0008C5010008C9
:1002C0002001002020070020200300202003002020
:1002D00053EA020C00F069802DE9F04B4FF0000664
:1002E000002B1FBFB3FA83F503FA05F424FA05F6D1
:1002F0005E4012BF1643B2FA82F502FA05F4C5F168
:1003000020051EBF22FA05FC44EA0C04203556EAFB
:10031000044C4FEA144418BF641C4FF000084FF01F
:100320000009904271EB030C39D3002919BFB1FACF
:1003300081F701FA07F6B0FA80F700FA07F6C7F17D
:1003400020071EBF20FA07FC46EA0C062037B6FB42
:10035000F4FCA7EB0507103F07F01F0BCBF12006BD
:100360002CFA06F60CFA0BFB44BFB3460026202FEE
:10037000A4BF5E464FF0000B5BEA060C08BF4FF0CF
:10038000010B19EB0B0948EB0608ABFB027C06FBE3
:1003900002CC0BFB03CCC01B71EB0C01C1E70B467D
:1003A000024641464846BDE8F08B13B5084318BFE6
:1003B0004FF0FF300146AFF30080BDE81C407047AE
:1003C0004FF0000200B5134694469646203922BFEE
:1003D000A0E80C50A0E80C50B1F12001BFF4F7AF39
:1003E000090728BFA0E80C5048BF0CC05DF804EB1B
:1003F000890028BF40F8042B08BF704748BF20F889
:10040000022B11F0804F18BF00F8012B7047704786
:1004100070477047754600F02BF8AE4605006946F8
:10042000534620F00700854618B020B5FFF73EFF81
:10043000BDE820404FF000064FF000074FF00008E5
:100440004FF0000BAC46ACE8C009ACE8C009ACE822
:10045000C009ACE8C00921F007018D46704710B50E
:100460000446AFF300802046BDE81040FFF709BF07
:10047000004870471000002001491820ABBEFEE77D
:100480002600020070470000FEE7000070470000F1
:10049000B0B5044600F0E6F8054640F20000C2F2AE
:1004A00000000078611C18BF044400BF00F0DAF8B7
:1004B000401BA042FAD3B0BD2DE9F04F83B000F14C
:1004C000200200F13E4741F60005009207F1FF7758
:1004D000C4F2020507224FEAB726A84208BF062247
:1004E00000254FF000084FF00009062E38BF4FEAF4
:1004F000B72201920AE000BF09F1010908F10208E0
:10050000B9F1100F05F1040500F0A2800F68012277
:1005100002FA09FE17EA0E0AEED0D1F804C003224F
:100520000CF003077E1E02FA08F4012E6FEA040B9A
:1005300012D88468CE6804EA0B0406FA08F634433D
:100540008460446824EA0E06CCF3001404FA09F42B
:100550002643466004E000BF032F01D103271EE0BD
:10056000C6688C6806EA0B0604FA08F42643022FD4
:10057000C66014D16FF00302009E02EA590756F8D4
:1005800007C005F01C040F220B69A2402CEA0202EE
:10059000A3401A43F251D1F804C00CF003070268DB
:1005A00007FA08F302EA0B021A431CF4403F026008
:1005B000A2D0002243F644030292C4F202031A6856
:1005C00043F6004442F480421A601A68C4F20104FF
:1005D00002F480420292029A29F003024FF6084C7C
:1005E0002244CFF6FF7C52F80C3005F00C070F26A2
:1005F000BE40B343019E06FA07F73B4342F80C3076
:10060000A2684B6842EA0A0743F60C4CDE0258BF68
:1006100022EA0A07A760C4F2010CDCF800209E025F
:1006200042EA0A0758BF22EA0A07CCF8007062685B
:100630009E0342EA0A0758BF22EA0A076760226857
:10064000DB0342EA0A0758BF22EA0A07276053E79A
:1006500003B0BDE8F08F0000002A08BF09048161E3
:100660007047000040F21C10C2F2000000687047A2
:10067000002804BF01207047F0B581B0044690F80F
:100680003D0028B9002084F83C00204600F01EFB05
:10069000242084F83D002068016821F001010160F8
:1006A000016841F400410160016821F400410160EA
:1006B00000F0A0FC636848F2A16CC0F2010C40F6A7
:1006C0000011C0F23D0163453CBF48F28041C0F2D9
:1006D0001E01884202D2012001B0F0BD4DF68361B7
:1006E000C4F21B31A0FB01122168970CD1F804E081
:1006F0004FF496762EF03F0545EA92454D607743DC
:1007000048F638160D6AC0F24106A7FB067625F0BA
:100710003F07634538BF960C721C3A430A62CA69A8
:1007200048F2A0664CF6FF77C0F20106B34222EA17
:1007300007020BD801385B00B0FBF3F001306FF318
:100740001F30042898BF04201BE000BFA7680138B1
:1007500057B119277B43B0FBF3F001306FF31F3023
:1007600070B100F5804007E003EB4303B0FBF3F00A
:1007700001306FF31F3018B100F5004001E000BFF9
:1007800001201043C8610868D4E9072320F0C000A5
:10079000104318430860886848F2FF3204F10C07E0
:1007A00090438CCF18431043A6698860C86820F036
:1007B000FF0038433043C860086840F0010008601B
:1007C00000202021206484F83D10206384F83E003E
:1007D00001B0F0BD2DE9F04383B01F4616468946AF
:1007E0000446FFF73FFF94F83D10202924D1054629
:1007F000206800BF816989071AD5FFF733FF411BC5
:1008000020681A29F6D381698907F3D500202021B1
:10081000206384F83D1084F83E00216C41F02001F3
:10082000216484F83C00022003B0BDE8F08300BFDF
:1008300094F83C10012903D1022003B0BDE8F083F5
:10084000012184F83C100168C90703D1016841F017
:1008500001010160016840F2040821F400610160B7
:10086000222184F83D10102184F83E1000212164DB
:1008700066626785618DC0F201082185A8F50031A7
:100880000439E162E16A02680A9F42F4806211F56C
:10089000803F026018BF012942D1016841F4807194
:1008A000016020464FF0011100223B46009500F008
:1008B000E9FE58B120680068C00544BF4FF40070DD
:1008C0002064012003B0BDE8F08300BF2069B0F5CB
:1008D000804F2BD149F00100C0B221683A4608612F
:1008E000A8F1020120462B4600F0B2FF0028E8D113
:1008F000208D00285AD002284ED001286ED12168C0
:100900000A6822F480620A60002202924A69029216
:100910008A690292029A0A6842F400720A6078E0D8
:100920000829BAD0216B1129B7D0BAE7062000EA0E
:10093000D916206806F1F001016108F10401204692
:100940003A462B4600F084FF0028BAD120685FFAAF
:1009500089F10161A8F1020120463A462B4600F0D8
:1009600077FF0028ADD10020029020680022416965
:100970003B460291816902910299016841F48071BC
:10098000016020464FF00111009500F07BFE002829
:1009900090D146F0F100A0E721680A6822F4806255
:1009A0000A600A6842F400621CE000BF0020029066
:1009B000206841690291816902910299016841F4BC
:1009C00000710160202084F83D00002084F83E0082
:1009D00084F83C0003B0BDE8F08300BF21680A68DA
:1009E00042F480620A60002202924A690292896996
:1009F000029102990DE000BF10690870606A218DB4
:100A000001306062481E2085618D013961850104D5
:100A1000D8D080B203280FD802284AD001282DD17F
:100A2000204639462A4600F07FFF00287FF449AF70
:100A30002068616A0069E0E7204639462A4600F0EE
:100A400073FF00287FF43DAF2068616A0069087079
:100A5000606A2268411C208D616201382085638DA7
:100A6000013B638553695B07D1D580B20328C3D1AD
:100A7000106820F480601060BEE700BF2046414649
:100A800000223B46009500F0FDFD00287FF419AFE1
:100A90002068616A026822F480620260006908705E
:100AA000606A218D01306062481E2085608D0138AA
:100AB00060852046414600223B46009500F0E2FD5D
:100AC00000287FF4FEAE2068616A026842F400727A
:100AD000026000690870606A2268411C6162218DB1
:100AE00001392185618D013961851169417085E781
:100AF0002DE9F04383B01E46174689460446FFF7AA
:100B0000B1FD94F83D10202924D10546206800BF8E
:100B1000816989071AD5FFF7A5FD411B20681A29AD
:100B2000F6D381698907F3D500202021206384F85A
:100B30003D1084F83E00216C41F02001216484F8CE
:100B40003C00022003B0BDE8F08300BF94F83C10E5
:100B5000012903D1022003B0BDE8F083012184F80C
:100B60003C100168C90703D1016841F0010101602F
:100B7000016840F2020821F400610160212184F83B
:100B80003D10102184F83E100021216467626685C3
:100B9000618DC0F201082185A8F10211E162E16ACC
:100BA0000A9E11F5803F18BF01291DD1016841F44B
:100BB0008071016020464FF00111002233460095FC
:100BC00000F060FD50B120680068C00544BF4FF4DC
:100BD00000702064012003B0BDE8F0832069B0F507
:100BE000804F07D1FE2015E00829DFD0216B1229A4
:100BF000DCD0DFE7062000EAD9102168F030086178
:100C000008F10601204632462B4600F021FE00285E
:100C1000E0D1FF20216800EA090008612046414632
:100C200032462B4600F014FE0028D3D1002002905B
:100C300020684169029180690290029806E000BF35
:100C4000204631462A4600F0BFFC18BB208D68B311
:100C5000204631462A4600F0AFFED8B9606A2168C6
:100C6000024612F8013B0B616262628D013A6285B5
:100C7000228D531E23854F697F07E1D51B04DFD0EA
:100C8000437802300B616062608D01386085901E90
:100C90002085D5E7206C04289CD12068016841F4A8
:100CA00000710160012003B0BDE8F0832068016895
:100CB00041F400710160202084F83D00002084F898
:100CC0003E0084F83C0003B0BDE8F083B0B586B0C8
:100CD00045F200410068C4F20001002488420594F6
:100CE000CDE903440294019402D006B0B0BD00BF28
:100CF00043F630050094C4F20205286840F0020073
:100D00002860286800F0020000900098C020019040
:100D10001220CDE90204032004900420059001F57F
:100D2000D83001A9FFF7C8FB0094286940F40010EF
:100D30002861286900F400100090009806B0B0BD4A
:100D400040F2000040F21C11C2F20000C2F20001A9
:100D500000780A68104408607047000080B543F6C8
:100D60000040C4F20200016841F4007101600168B2
:100D700041F480610160016841F4807101600320E9
:100D800000F076F8002000F005F800F027F80020C9
:100D900080BD000070B540F20006C2F2000640F2CD
:100DA00008013278C2F200014FF47A730968B3FB8C
:100DB000F2F20446B1FBF2F1084600F083FB0F2C7F
:100DC0004FF0010508D838B94FF0FF302146002216
:100DD000002500F021F87460284670BD82B0002024
:100DE00043F640010190C4F202014A6842F4804295
:100DF0004A604A6802F480420192019A00900868B1
:100E000040F080500860086800F080500090009822
:100E1000072002B000F02CB810B54EF60C5CCEF2F4
:100E2000000CDCF80030C3F3022E8EF00704042C13
:100E300028BF0424BEF103034FF0FF3E0EFA04F472
:100E400038BF0023A14399400EFA03F39A4311439C
:100E500000F00F0200F160430901043A03F5644316
:100E60006244002848BF02F10C03197010BD000055
:100E70004EF60C51CEF200010A684FF6FF031A40FD
:100E800060F30A2242F0806040F0FD700860704715
:100E9000002804BF012070472DE9F04143F60808FF
:100EA000C4F202080446D8F8F8030D4600F00F001B
:100EB000814207D988F8F853D8F8F80300F00F00FA
:100EC000A84277D12068810717D5410705D5D8F802
:100ED000001041F4E051C8F80010010705D5D8F81A
:100EE000001041F46041C8F80010D8F80010A26862
:100EF00021F0F0011143C8F80010C00740D1D8F824
:100F0000F80300F00F00854207D288F8F853D8F8AC
:100F1000F80300F00F00A8424CD12068410707D524
:100F2000D8F80010E26821F4E0511143C8F800102D
:100F3000000708D5D8F80000216920F4604040EA95
:100F4000C100C8F8000000F07DF8D8F8001042F2A7
:100F50000832C1F30311C0F60002515C40F20802EE
:100F600020FA01F140F20400C2F200000068C2F26F
:100F700000021160FFF70EFF0020BDE8F08100BF06
:100F80006068811E022907D258F8081C89015CBFDD
:100F90000120BDE8F08111E0012807D158F8081CB4
:100FA00089035CBF0120BDE8F08107E058F8081C08
:100FB000890703D40120BDE8F08100BFD8F80010F4
:100FC00021F003010843C8F80000FFF74BFB064679
:100FD00041F28837D8F80000616800F00C00B0EBEF
:100FE000810F8CD0FFF73EFB801BB842F2D9032063
:100FF000BDE8F08140F2080043F60801C2F20000AB
:10100000C4F202010068096842F21832C1F3822179
:10101000C0F60002515CC8407047000040F2080072
:1010200043F60801C2F20000C4F202010068096838
:1010300042F21832C1F34231C0F60002515CC8409E
:101040007047000010B543F60404C4F2020460685F
:10105000C0F3810142F20040C0F2F400DFE801F089
:101060004202081841F20020C0F27A0010BD00BF11
:10107000216801F03F02216823684902C3F3881107
:1010800016D4A1FB00010023FFF722F917E000BFEF
:10109000216801F03F02216823684902C3F38811E7
:1010A00014D4A1FB00010023FFF712F915E000BFE3
:1010B00041F20020C0F27A004843B0FBF2F0216810
:1010C0000222C1F3014102EB410109E041F200209B
:1010D000C0F27A004843B0FBF2F02168C1F302711C
:1010E000B0FBF1F010BD0000002804BF01207047E4
:1010F0002DE9F04182B00446007843F60006C007AF
:10110000C4F202060CD0B06800F00C00042840F0D5
:1011100089803068800303D56068002800F0508122
:101120002078800723D5B06810F00C0F11D0B0687C
:1011300000F00C00082802D17068400209D5B068A0
:1011400000F00C000C2840F09F807068400200F115
:101150009B803068800703D5E068012840F030812B
:101160003068216920F0F80040EAC1003060207842
:10117000000713D4207840072AD4A569002D00F079
:101180001A81B06800F00C00082840F0AB80012DF7
:1011900040F0E880012002B0BDE8F08160690028DD
:1011A00040F20000C4F2472000F088800121C0F81E
:1011B000801EFFF757FA0546706F8007DAD4FFF7F5
:1011C00051FA401B0228F7D9032002B0BDE8F08194
:1011D000306C5FEAC0080AD400200190306C40F007
:1011E00080503064306C00F080500190019847F2DC
:1011F0000007C4F200073868C00537D4386840F4E7
:1012000080703860FFF72EFA054600BF3868C005C9
:101210002CD4FFF727FA401B0228F7D9032002B08D
:10122000BDE8F081B06800F00C00082803D17068B8
:1012300040023FF56EAFB06800F00C000C2803D1FF
:10124000706840023FF565AF61683068B1F5803F76
:1012500007D0B1F5A02F40F0CB8040F48020306063
:10126000306840F480303060CBE000BFA168306F60
:10127000012905D0052957D140F004003067306FAF
:1012800040F00100306759E0E068002800F09C80E1
:101290000020C4F2472001210160FFF7E3F9054671
:1012A000306880073FF55CAFFFF7DCF9401B022890
:1012B0004FF00300F4D902B0BDE8F0810021C0F87E
:1012C000801EFFF7CFF90546706F80077FF552AF9C
:1012D000FFF7C8F9401B0228F6D9032002B0BDE889
:1012E000F08100BF0027C4F2472700203866FFF7CF
:1012F000B9F9022D05460BD13068800140F192808A
:10130000FFF7B0F9401B02284FF00300F4D9D2E7F1
:10131000306880014FD5FFF7A5F9401B02284FF038
:101320000300F5D9C7E700BF20F001003067306F38
:10133000002920F00400306700F09880FFF792F950
:10134000054641F2883700BF306F800700F1A0806A
:10135000FFF788F9401BB842F6D9032002B0BDE878
:10136000F08100BF7068E16900F480028A4227D1F1
:10137000216A00F03F028A4222D147F6C071626AB8
:101380000140B1EB821F1BD1A16A4FF6FF73C90365
:10139000994300F44032A1F580318A4210D1E16ACC
:1013A00000F07062B2EB016F0AD1216B00F0E040F7
:1013B000B0EB017F04D1002002B0BDE8F08100BF96
:1013C000012002B0BDE8F0810020C4F247200021D6
:1013D0000160FFF747F90546306880077FF5C7AE23
:1013E000FFF740F9401B02284FF00300F4D962E7F1
:1013F00020F4803030603068002920F48020306094
:1014000050D0FFF72FF90546306880033FF588AECE
:10141000FFF728F9401B6428F6D9032002B0BDE885
:10142000F08100BF04F11C052FCD246B084340EA76
:101430008210D9034FF6FF729143A1F5803140EA43
:101440000560084340EA0470706001203866FFF7C9
:1014500009F9044630688001ADD4FFF703F9001B99
:1014600002284FF00300F5D925E700BFFFF7FAF88F
:10147000054641F2883700BF306F800708D5FFF777
:10148000F1F8401BB8424FF00300F5D913E700BF55
:10149000B8F1000F3FF571AE306C20F08050306431
:1014A0006BE600BFFFF7DEF8054600BF306880033B
:1014B0007FF536AEFFF7D6F8401B64284FF00300E7
:1014C000F4D9F8E6411E0020B0EB116F1CBF0120DB
:1014D00070474EF21002CEF2000251604EF62351D8
:1014E000CEF20001F0230B7007219060116070476D
:1014F000002804BF0120704710B5044690F8410051
:1015000028B9002084F84000204600F021F824206B
:1015100084F841002068C16821F40051C160204670
:1015200000F00EFB2068016921F4904101614169DE
:1015300021F02A014161C16841F40051C1600020DD
:101540002021606484F8411084F84210606310BD6B
:1015500080B586B044F200410068C4F20001002268
:1015600088420592CDE903220292019202D006B090
:1015700080BD00BF43F630000092C4F20200036950
:1015800043F400330361036903F400330093009BC9
:101590000092036843F001030360006800F001005B
:1015A000009000980C2001900220CDE90202032057
:1015B00004900720059001F5DE3001A9FEF77CFFBD
:1015C00006B080BDFEE7000070B50368044653F81E
:1015D000140F400711D40E46481C29D086BB00BF0B
:1015E0001868400527D4FFF73DF8236853F8140F17
:1015F000400737D518684007F2D5002070BD00BFFE
:1016000018684007F9D41868400514D418684007D2
:10161000F3D4186840050ED418684007EDD4186854
:10162000400508D4186840074FF0000048BF70BD5F
:1016300018684005E4D56FF480601860042012E05B
:10164000154603E053F8140F4007D6D41868400538
:10165000F1D4FFF707F8401B2368B042F2D958696C
:101660004007EFD4202000212022216384F83D2070
:1016700084F83E10226C10432064012084F83C1052
:1016800070BD00002DE9F041054600681E46144675
:1016900001F47F0201338FB242D0DDF81880B2F539
:1016A000803F40F0878040693840C01BB0FA80F02E
:1016B0004009844240F0C8804EB924E04069384077
:1016C000C01BB0FA80F04009844240F0BD80FEF7B4
:1016D000C9FFA0EB08012868B142EFD94169394040
:1016E000C91BB1FA81F149098C42E7D19BE000BFE7
:1016F00040693840C01BB0FA80F0400984424FF086
:10170000000040F0A280FEF7ADFF28684169394033
:10171000C91BB1FA81F149098C42E9D183E000BFCC
:10172000B2F5803F24D100BF41693940C91BB1FAED
:1017300081F149098C4240F0878041693940C91BD9
:10174000B1FA81F149098C4240F07E80416939400B
:10175000C91BB1FA81F149098C4275D141693940FF
:10176000C91BB1FA81F149098C42DDD06CE000BFA0
:1017700081693940C91BB1FA81F149098C4263D1B1
:1017800081693940C91BB1FA81F149098C425BD1A9
:1017900081693940C91BB1FA81F149098C4253D1A1
:1017A00081693940C91BB1FA81F149098C42DFD006
:1017B0004AE000BF80693840C01BB0FA80F04009A1
:1017C000844241D146B923E080693840C01BB0FA59
:1017D00080F04009844237D1FEF744FFA0EB0801B6
:1017E0002868B142F0D981693940C91BB1FA81F149
:1017F00049098C42E8D116E080693840C01BB0FA34
:1018000080F0400984424FF0000018BFBDE8F0812D
:10181000FEF728FF286881693940C91BB1FA81F1B8
:1018200049098C42E8D100202021286385F83D1029
:1018300085F83E00296C41F02001296485F83C00C0
:101840000120BDE8F08100BF0020BDE8F08100006C
:10185000F0B581B0044600681D4643698FB203EAC3
:101860000701B94202D1002001B0F0BD416916461E
:1018700001323CD0490512D47EB300BFFEF7F2FE20
:10188000411B2068B14203D941693940B9422BD18B
:1018900041693940B942E6D041694905EED5016850
:1018A00041F4007101606FF4806141610420002106
:1018B0002022216384F83D2084F83E10226C1043DE
:1018C000206484F83C10012001B0F0BD416939402A
:1018D000B942C8D041694905E1D4FEF7C3FE20688A
:1018E00041693940B942F1D02020E0E7416949051A
:1018F000D5D441693940B942B5D041694905CED402
:1019000041693940B942AED041694905C7D44169FE
:101910003940B942A7D041694905C0D4416939402D
:10192000B942E3D19FE7000070B504460068154650
:1019300050F8143F5A063DD40E4629B926E000BFA0
:1019400050F8141F490635D40168C90621D4FEF7A2
:1019500089FE411B2068B142F2D941694906EFD4A2
:1019600000202021206384F83D1084F83E00206C84
:1019700040F0200018E000BFFEF774FE206850F829
:10198000141F4906ECD50168490613D40168C9063D
:10199000F2D56FF01001016000202021206384F84F
:1019A0003D1084F83E00206C2064002084F83C0048
:1019B000012070BD002070BD70B50368044653F867
:1019C000140F000611D40E46481C29D086BB00BF58
:1019D0001868400527D4FEF745FE236853F8140F16
:1019E000000637D518680006F2D5002070BD00BF8C
:1019F00018680006F9D41868400514D41868000661
:101A0000F3D4186840050ED418680006EDD41868A1
:101A1000400508D4186800064FF0000048BF70BDAC
:101A200018684005E4D56FF480601860042012E067
:101A3000154603E053F8140F0006D6D41868400585
:101A4000F1D4FEF70FFE401B2368B042F2D958696B
:101A50000006EFD4202000212022216384F83D20BD
:101A600084F83E10226C10432064012084F83C105E
:101A700070BD0000FEE70000FEE7000070470000B8
:101A800070470000FFF75CB970B594B007AC204612
:101A90003421FEF795FC002543F640000695CDE97C
:101AA0000455CDE902550195C4F2020001680122F6
:101AB00041F0805101600068022600F080500190E2
:101AC000019847F200000195C4F20000016862F33A
:101AD0008F310160006800F44040019001981020AF
:101AE0000B900F904FF4A87010900420CDE91106D0
:101AF000204607960A92CDE90D651396FFF7F4FA92
:101B000010B172B6FEE700BF0F20CDE902064FF418
:101B10008050CDE9050502A802210495FFF7B8F928
:101B200010B172B6FEE700BF14B070BD4EF688501B
:101B3000CEF20000016841F47001016070470000BE
:101B4000B0B50446006804F108030ECB05691943DB
:101B500025F440552A4302616269E3691143C26872
:101B6000194349F20C639A431143C1604169A26968
:101B700021F4407141F20043114340F48062C4F209
:101B800001039A42416103D1FFF748FA02E000BF26
:101B9000FFF730FAE1694FF69C7563681922C0F6C9
:101BA000FF75B1F5004FA0FB02011FD15A00DB0FFA
:101BB000FEF78EFB48F21F51C5F2EB11A0FB01238B
:101BC0005A0905F1805302FB0300322303EBC000E6
:101BD000A0FB01014FF4F87000EA111000EB0210B5
:101BE000C1F34211084421688860B0BD9A009B0F80
:101BF000FEF76EFB48F21F51C5F2EB11A0FB01236B
:101C00005A0902FB0500322303EB0010A0FB01017F
:101C1000F02000EA511000EB0210C1F34311084418
:101C200021688860B0BD0000FEE7000000000000F1
:101C30002DE9F0412DED028B82B090460D46044611
:101C40000DF1060001A90DF102026B4600F050F8FB
:101C5000BDF80000BDF80610012898BF012000EE75
:101C6000101A01EE100AB8EE400AB8EE418A80EE72
:101C7000080A10EE100A00F0C9FA9FED1B0B56EC93
:101C8000107B3A46334600F0C3F900F091F9BDF8F5
:101C90000410206000EE101AB8EE400A80EE080A28
:101CA00010EE100A00F0B2FA3A46334600F0B0F9EE
:101CB00000F07EF9BDF80210286000EE101AB8EEB0
:101CC000400A80EE080A10EE100A00F09FFA3A4629
:101CD000334600F09DF900F06BF9C8F8000002B03F
:101CE000BDEC028BBDE8F0810000000000E06F4019
:101CF0002DE9F04385B040F2C80507469420C2F2B2
:101D000000051C46904689468DF80A0064260DF1B0
:101D10000A022846522101230096FEF7E9FE02AA94
:101D20002846522102230096FEF754FDBDF8080014
:101D30000DF10D02208096208DF80D0028465221CD
:101D400001230096FEF7D4FE0DF10B022846522126
:101D500002230096FEF73EFDBDF80B0004AA388072
:101D600098208DF810002846522101230096FEF796
:101D7000BFFE0DF10E022846522102230096FEF707
:101D800029FDBDF80E000DF11302A9F800009A20FC
:101D90008DF813002846522101230096FEF7A8FE75
:101DA0000DF111022846522102230096FEF712FD82
:101DB000BDF81100A8F8000005B0BDE8F0830000F0
:101DC00086B00024C4F20204FEF7C8FFFFF75CFEF1
:101DD000002643F630000596CDE90366CDE901669D
:101DE0000096C4F202000168002241F00401016083
:101DF0000168202701F00401009100990096016814
:101E000041F080010160016801F0800100910099BA
:101E10000096016841F001010160016801F00101D3
:101E2000009100990096016841F00201016000688C
:101E3000202100F00200009000982046FEF70CFCE4
:101E40004FF4005001904FF4041001ADCDE90206AB
:101E500004F500602946FEF72FFB0120CDE90206BC
:101E60002046294601970496FEF726FB40F2C8005B
:101E7000A4F5D631C2F2000041F680224FF480432F
:101E8000C0F2060280E84600C0E90363C0E90566C7
:101E9000C0E90766FEF7ECFB10B172B6FEE700BFC3
:101EA000A4F5DE3140F27004C2F20004204640F88E
:101EB0000C1F4FF4E1310C22C0E90116C0E90366A2
:101EC000C0E90526C661FFF713FB18B172B600BF63
:101ED000FEE700BF00F00EF8251D04F1080600BF64
:101EE000204629463246FFF7A3FE4FF4FA70FEF76C
:101EF000CFFAF5E770B584B040F2C8049220C2F280
:101F000000048DF8060064250DF1060220465221DA
:101F1000012300950126FEF7EBFD0DF10702204697
:101F2000522101230095FEF755FC9DF80700442837
:101F300001D0102839D140F2C400C2F2000040F2B2
:101F4000C80406704EF68130C2F20004ADF80800F5
:101F500002AA2046522102230095FEF7C9FD40F255
:101F60008F10ADF80A000DF10A022046522102231B
:101F70000095FEF7BDFD4FF4C070ADF80C0003AA4C
:101F80002046522102230095FEF7B2FD0320FEF702
:101F90007FFA4FF46070ADF80E000DF10E0220468E
:101FA000522102230095FEF7A3FD04B070BD00008E
:101FB0004FEA41034FEA5353A3F58063D3F11E0365
:101FC000C8BFD3F1210C0CDD4FF0004242EAC12220
:101FD00042EA505232FA03FC8CEAE17CACEBE1704D
:101FE0007047102BC4BF0020704703F5787CBCF10C
:101FF000FF3F04D06FF0004282EA2100704770B5C5
:1020000000F0B0F84992248000207047F2E7000009
:1020100070B5DFF848C11CEA111E1EBF1CEA13157B
:102020009EEA0C0F95EA0C0F00F06F8081EA030422
:102030004EEAD47EAE4421EA4C1123EA4C1341F41B
:10204000801143F48013AEF17F7EA1FB024CA0FB14
:102050000365361955EB0C05A1FB034C4CF100034D
:10206000A0FB021C16EB0C06654153F1000309426C
:1020700018BF46F0010613F4007F0BD14FEA03317D
:102080004FEA053041EA155140EA165034036FF02B
:1020900003020AE04FEAC3214FEAC52041EA555145
:1020A00040EA5650F4026FF0020202EB2E4201EBBE
:1020B000025585EACE710AD05FEA440C18BF24F0BD
:1020C000004450F1000041F1000120EAD47040F2D8
:1020D000FE7C624500D270BDA84214BF4FF0804420
:1020E0004FF04044002E08BF0024BEF1806FA8BF0F
:1020F000A1F1C041BDE8704080F2828001F1C04191
:1021000001F000414FF0000070470CEA13159EEA01
:102110000C0F18BF95EA0C0F06D081EA030E4FF0A2
:1021200000000EF0004170BD00F01CF88900013E77
:1021300000F007B800F009B84FEA430C5FEA5C5CB6
:1021400008D081EA030100F05BB84FEA410C5FEA76
:102150005C5CF6D102494FF0000070470000FF07B9
:102160000000F87F0EF1020E2EF0030E5EF8046BF5
:10217000364205D4012A43EB030515F5001F12D89A
:10218000012841EB010C1CF5001F0CD80ED14FEAC1
:10219000D17C0CEB4C0C0CF1020C15F5001F08BFA8
:1021A0004CEBD37C04E04FF0080C01E04FEAD37C09
:1021B0000CEB4C0526FA05F606F00706B6F1040C02
:1021C00006D20EEB860CBDE870404CF0010C604767
:1021D000DFE80CF0090B02024FF00041A1F50021ED
:1021E0004FF0000070BD19461046012851EB010464
:1021F00018BFD4F5001484BF002001F0004170BD69
:102200000808A0F500114FEA3101704743004FEA7A
:10221000D30C4FEA3C0C43401FBF40070CF1605108
:1022200013F0FE4F70471CF0006F03D10CF000411B
:10223000002070470CF0004343EA507040EACC00A5
:1022400010B500F00EF800BF000000924FEA000148
:10225000FFF7D6BF4FF00041A1F500214FF000007D
:1022600070470EF1020E2EF0030E5EF8044B24426E
:1022700004D44FEA4102B2F17F4F11D84FEA400334
:10228000B3F17F4F0CD80ED14FEAD07C0CEB4C0C45
:102290000CF1020CB2F17F4F08BF4CEBD17C04E093
:1022A0004FF0080C01E04FEAD17C0CEB4C0324FA10
:1022B00003F404F00704B4F1040C06D20EEB840C12
:1022C000BDE810404CF0010C6047DFE80CF0070857
:1022D00002024FF00040A0F5800010BD0846420009
:1022E00018BFD2F1807288BF00F0004010BDF1EE3F
:1022F000100A4FF6FF71C0F2C03120EA010040F031
:102300004070E1EE100A704700000000000000007D
:10231000010203040607080900000000010203048B
:1023200040230008000000201000000028020008E0
:102330005023000810000020100700004802000889
:1023400001000000100000000024F4000000000064
:04000005080001C529
:00000001FF
